{
  "_format": "hh-sol-artifact-1",
  "contractName": "EncryptedPayrollV2",
  "sourceName": "contracts/EncryptedPayrollV2.sol",
  "abi": [
    {
      "inputs": [],
      "stateMutability": "nonpayable",
      "type": "constructor"
    },
    {
      "inputs": [],
      "name": "AccessControlBadConfirmation",
      "type": "error"
    },
    {
      "inputs": [
        {
          "internalType": "address",
          "name": "account",
          "type": "address"
        },
        {
          "internalType": "bytes32",
          "name": "neededRole",
          "type": "bytes32"
        }
      ],
      "name": "AccessControlUnauthorizedAccount",
      "type": "error"
    },
    {
      "inputs": [],
      "name": "ZamaProtocolUnsupported",
      "type": "error"
    },
    {
      "anonymous": false,
      "inputs": [
        {
          "indexed": true,
          "internalType": "bytes32",
          "name": "role",
          "type": "bytes32"
        },
        {
          "indexed": true,
          "internalType": "bytes32",
          "name": "previousAdminRole",
          "type": "bytes32"
        },
        {
          "indexed": true,
          "internalType": "bytes32",
          "name": "newAdminRole",
          "type": "bytes32"
        }
      ],
      "name": "RoleAdminChanged",
      "type": "event"
    },
    {
      "anonymous": false,
      "inputs": [
        {
          "indexed": true,
          "internalType": "bytes32",
          "name": "role",
          "type": "bytes32"
        },
        {
          "indexed": true,
          "internalType": "address",
          "name": "account",
          "type": "address"
        },
        {
          "indexed": true,
          "internalType": "address",
          "name": "sender",
          "type": "address"
        }
      ],
      "name": "RoleGranted",
      "type": "event"
    },
    {
      "anonymous": false,
      "inputs": [
        {
          "indexed": true,
          "internalType": "bytes32",
          "name": "role",
          "type": "bytes32"
        },
        {
          "indexed": true,
          "internalType": "address",
          "name": "account",
          "type": "address"
        },
        {
          "indexed": true,
          "internalType": "address",
          "name": "sender",
          "type": "address"
        }
      ],
      "name": "RoleRevoked",
      "type": "event"
    },
    {
      "anonymous": false,
      "inputs": [
        {
          "indexed": true,
          "internalType": "address",
          "name": "employee",
          "type": "address"
        },
        {
          "indexed": false,
          "internalType": "uint256",
          "name": "amount",
          "type": "uint256"
        }
      ],
      "name": "SalaryWithdrawn",
      "type": "event"
    },
    {
      "anonymous": false,
      "inputs": [
        {
          "indexed": true,
          "internalType": "address",
          "name": "employee",
          "type": "address"
        }
      ],
      "name": "StreamCanceled",
      "type": "event"
    },
    {
      "anonymous": false,
      "inputs": [
        {
          "indexed": true,
          "internalType": "address",
          "name": "employee",
          "type": "address"
        },
        {
          "indexed": false,
          "internalType": "uint64",
          "name": "startBlock",
          "type": "uint64"
        }
      ],
      "name": "StreamCreated",
      "type": "event"
    },
    {
      "anonymous": false,
      "inputs": [
        {
          "indexed": true,
          "internalType": "address",
          "name": "employee",
          "type": "address"
        }
      ],
      "name": "StreamPaused",
      "type": "event"
    },
    {
      "anonymous": false,
      "inputs": [
        {
          "indexed": true,
          "internalType": "address",
          "name": "employee",
          "type": "address"
        }
      ],
      "name": "StreamResumed",
      "type": "event"
    },
    {
      "anonymous": false,
      "inputs": [
        {
          "indexed": true,
          "internalType": "address",
          "name": "employee",
          "type": "address"
        }
      ],
      "name": "WithdrawalReady",
      "type": "event"
    },
    {
      "inputs": [],
      "name": "DEFAULT_ADMIN_ROLE",
      "outputs": [
        {
          "internalType": "bytes32",
          "name": "",
          "type": "bytes32"
        }
      ],
      "stateMutability": "view",
      "type": "function"
    },
    {
      "inputs": [],
      "name": "HR_ROLE",
      "outputs": [
        {
          "internalType": "bytes32",
          "name": "",
          "type": "bytes32"
        }
      ],
      "stateMutability": "view",
      "type": "function"
    },
    {
      "inputs": [
        {
          "internalType": "address",
          "name": "employee",
          "type": "address"
        }
      ],
      "name": "cancelStream",
      "outputs": [],
      "stateMutability": "nonpayable",
      "type": "function"
    },
    {
      "inputs": [],
      "name": "confidentialProtocolId",
      "outputs": [
        {
          "internalType": "uint256",
          "name": "",
          "type": "uint256"
        }
      ],
      "stateMutability": "view",
      "type": "function"
    },
    {
      "inputs": [
        {
          "internalType": "address",
          "name": "employee",
          "type": "address"
        },
        {
          "internalType": "externalEuint128",
          "name": "encryptedSalary",
          "type": "bytes32"
        },
        {
          "internalType": "bytes",
          "name": "salaryProof",
          "type": "bytes"
        },
        {
          "internalType": "uint64",
          "name": "startBlock",
          "type": "uint64"
        },
        {
          "internalType": "uint64",
          "name": "cliffBlock",
          "type": "uint64"
        }
      ],
      "name": "createStream",
      "outputs": [],
      "stateMutability": "nonpayable",
      "type": "function"
    },
    {
      "inputs": [
        {
          "internalType": "uint256",
          "name": "index",
          "type": "uint256"
        }
      ],
      "name": "getEmployeeByIndex",
      "outputs": [
        {
          "internalType": "address",
          "name": "employee",
          "type": "address"
        }
      ],
      "stateMutability": "view",
      "type": "function"
    },
    {
      "inputs": [
        {
          "internalType": "uint256",
          "name": "offset",
          "type": "uint256"
        },
        {
          "internalType": "uint256",
          "name": "limit",
          "type": "uint256"
        }
      ],
      "name": "getEmployees",
      "outputs": [
        {
          "internalType": "address[]",
          "name": "employees",
          "type": "address[]"
        }
      ],
      "stateMutability": "view",
      "type": "function"
    },
    {
      "inputs": [
        {
          "internalType": "bytes32",
          "name": "role",
          "type": "bytes32"
        }
      ],
      "name": "getRoleAdmin",
      "outputs": [
        {
          "internalType": "bytes32",
          "name": "",
          "type": "bytes32"
        }
      ],
      "stateMutability": "view",
      "type": "function"
    },
    {
      "inputs": [
        {
          "internalType": "address",
          "name": "employee",
          "type": "address"
        }
      ],
      "name": "getStream",
      "outputs": [
        {
          "internalType": "euint128",
          "name": "salaryPerBlock",
          "type": "bytes32"
        },
        {
          "internalType": "euint64",
          "name": "startBlock",
          "type": "bytes32"
        },
        {
          "internalType": "euint64",
          "name": "cliffBlock",
          "type": "bytes32"
        },
        {
          "internalType": "euint128",
          "name": "claimedAmount",
          "type": "bytes32"
        }
      ],
      "stateMutability": "view",
      "type": "function"
    },
    {
      "inputs": [],
      "name": "getStreamCount",
      "outputs": [
        {
          "internalType": "uint256",
          "name": "count",
          "type": "uint256"
        }
      ],
      "stateMutability": "view",
      "type": "function"
    },
    {
      "inputs": [
        {
          "internalType": "bytes32",
          "name": "role",
          "type": "bytes32"
        },
        {
          "internalType": "address",
          "name": "account",
          "type": "address"
        }
      ],
      "name": "grantRole",
      "outputs": [],
      "stateMutability": "nonpayable",
      "type": "function"
    },
    {
      "inputs": [
        {
          "internalType": "bytes32",
          "name": "role",
          "type": "bytes32"
        },
        {
          "internalType": "address",
          "name": "account",
          "type": "address"
        }
      ],
      "name": "hasRole",
      "outputs": [
        {
          "internalType": "bool",
          "name": "",
          "type": "bool"
        }
      ],
      "stateMutability": "view",
      "type": "function"
    },
    {
      "inputs": [
        {
          "internalType": "address",
          "name": "employee",
          "type": "address"
        }
      ],
      "name": "hasStream",
      "outputs": [
        {
          "internalType": "bool",
          "name": "exists",
          "type": "bool"
        }
      ],
      "stateMutability": "view",
      "type": "function"
    },
    {
      "inputs": [
        {
          "internalType": "address",
          "name": "employee",
          "type": "address"
        }
      ],
      "name": "pauseStream",
      "outputs": [],
      "stateMutability": "nonpayable",
      "type": "function"
    },
    {
      "inputs": [
        {
          "internalType": "bytes32",
          "name": "role",
          "type": "bytes32"
        },
        {
          "internalType": "address",
          "name": "callerConfirmation",
          "type": "address"
        }
      ],
      "name": "renounceRole",
      "outputs": [],
      "stateMutability": "nonpayable",
      "type": "function"
    },
    {
      "inputs": [],
      "name": "requestWithdrawal",
      "outputs": [
        {
          "internalType": "bytes32",
          "name": "claimableHandle",
          "type": "bytes32"
        }
      ],
      "stateMutability": "nonpayable",
      "type": "function"
    },
    {
      "inputs": [
        {
          "internalType": "address",
          "name": "employee",
          "type": "address"
        }
      ],
      "name": "resumeStream",
      "outputs": [],
      "stateMutability": "nonpayable",
      "type": "function"
    },
    {
      "inputs": [
        {
          "internalType": "bytes32",
          "name": "role",
          "type": "bytes32"
        },
        {
          "internalType": "address",
          "name": "account",
          "type": "address"
        }
      ],
      "name": "revokeRole",
      "outputs": [],
      "stateMutability": "nonpayable",
      "type": "function"
    },
    {
      "inputs": [
        {
          "internalType": "address",
          "name": "",
          "type": "address"
        }
      ],
      "name": "streams",
      "outputs": [
        {
          "internalType": "euint128",
          "name": "salaryPerBlock",
          "type": "bytes32"
        },
        {
          "internalType": "euint64",
          "name": "startBlock",
          "type": "bytes32"
        },
        {
          "internalType": "euint64",
          "name": "cliffBlock",
          "type": "bytes32"
        },
        {
          "internalType": "euint128",
          "name": "claimedAmount",
          "type": "bytes32"
        },
        {
          "internalType": "bool",
          "name": "isPaused",
          "type": "bool"
        },
        {
          "internalType": "bool",
          "name": "exists",
          "type": "bool"
        }
      ],
      "stateMutability": "view",
      "type": "function"
    },
    {
      "inputs": [
        {
          "internalType": "uint128",
          "name": "amount",
          "type": "uint128"
        }
      ],
      "name": "submitWithdrawal",
      "outputs": [],
      "stateMutability": "nonpayable",
      "type": "function"
    },
    {
      "inputs": [
        {
          "internalType": "bytes4",
          "name": "interfaceId",
          "type": "bytes4"
        }
      ],
      "name": "supportsInterface",
      "outputs": [
        {
          "internalType": "bool",
          "name": "",
          "type": "bool"
        }
      ],
      "stateMutability": "view",
      "type": "function"
    },
    {
      "stateMutability": "payable",
      "type": "receive"
    }
  ],
  "bytecode": "0x60806040523480156200001157600080fd5b50620000c9620000206200010a565b80517f9e7b61f58c47dc699ac88507c4f5bb9f121c03808c5676a8078fe583e464970080546001600160a01b03199081166001600160a01b039384161790915560208301517f9e7b61f58c47dc699ac88507c4f5bb9f121c03808c5676a8078fe583e46497018054831691841691909117905560408301517f9e7b61f58c47dc699ac88507c4f5bb9f121c03808c5676a8078fe583e46497028054909216921691909117905550565b620000d660003362000280565b50620001037ffd70517941c75212b0f9013e45c47a37d6d983c5304288c7af285f2ea40cbba73362000280565b506200032f565b604080516060810182526000808252602082018190529181019190915246600103620001665750604080516060808201835260008083526020808401829052928401819052835191820184528082529181018290529182015290565b4662aa36a703620001e75750604080516060808201835260008083526020808401829052928401528251908101835273f0ffdc93b7e186bc2f8cb3daa75d86d1930a433d81527392c920834ec8941d2c77d188936e1f7a6f49c1279181019190915273be0e383937d564d7ff0bc3b46c51f0bf8d5c311a9181019190915290565b46617a6903620002675750604080516060808201835260008083526020808401829052928401528251908101835273f0ffdc93b7e186bc2f8cb3daa75d86d1930a433d81527392c920834ec8941d2c77d188936e1f7a6f49c1279181019190915273be0e383937d564d7ff0bc3b46c51f0bf8d5c311a9181019190915290565b6040516373cac13b60e01b815260040160405180910390fd5b6000828152602081815260408083206001600160a01b038516845290915281205460ff1662000325576000838152602081815260408083206001600160a01b03861684529091529020805460ff19166001179055620002dc3390565b6001600160a01b0316826001600160a01b0316847f2f8788117e7eff1d82e926ec794901d17c78024a50270940304540a733656f0d60405160405180910390a450600162000329565b5060005b92915050565b611dca806200033f6000396000f3fe60806040526004361061012e5760003560e01c80638927b030116100ab578063cfa0e4e51161006f578063cfa0e4e5146103fa578063cfa919061461041a578063d547741f1461043a578063d7290fed1461045a578063dbaf21451461047a578063f3c6a1981461048f57600080fd5b80638927b0301461036e5780638e61aedb1461038357806391d14854146103b0578063a217fddf146103d0578063c0f22084146103e557600080fd5b80632f2ff15d116100f25780632f2ff15d1461022f57806336568abe1461024f57806359420e481461026f57806359dda57c146102a757806383699275146102e857600080fd5b806301ffc9a71461013a5780630bf2b21a1461016f5780631886a81f1461019157806319edaf21146101b1578063248a9ca3146101f157600080fd5b3661013557005b600080fd5b34801561014657600080fd5b5061015a6101553660046119aa565b6104b1565b60405190151581526020015b60405180910390f35b34801561017b57600080fd5b5061018f61018a3660046119f0565b6104e8565b005b34801561019d57600080fd5b5061018f6101ac366004611a23565b6106b5565b3480156101bd57600080fd5b506101d16101cc3660046119f0565b6109bd565b604080519485526020850193909352918301526060820152608001610166565b3480156101fd57600080fd5b5061022161020c366004611ad0565b60009081526020819052604090206001015490565b604051908152602001610166565b34801561023b57600080fd5b5061018f61024a366004611ae9565b610a66565b34801561025b57600080fd5b5061018f61026a366004611ae9565b610a91565b34801561027b57600080fd5b5061028f61028a366004611ad0565b610ac9565b6040516001600160a01b039091168152602001610166565b3480156102b357600080fd5b5061015a6102c23660046119f0565b6001600160a01b0316600090815260016020526040902060040154610100900460ff1690565b3480156102f457600080fd5b5061033d6103033660046119f0565b6001602081905260009182526040909120805491810154600282015460038301546004909301549192909160ff8082169161010090041686565b60408051968752602087019590955293850192909252606084015215156080830152151560a082015260c001610166565b34801561037a57600080fd5b50610221610b41565b34801561038f57600080fd5b506103a361039e366004611b15565b610b50565b6040516101669190611b37565b3480156103bc57600080fd5b5061015a6103cb366004611ae9565b610c7c565b3480156103dc57600080fd5b50610221600081565b3480156103f157600080fd5b50600254610221565b34801561040657600080fd5b5061018f6104153660046119f0565b610ca5565b34801561042657600080fd5b5061018f610435366004611b84565b610dad565b34801561044657600080fd5b5061018f610455366004611ae9565b610eff565b34801561046657600080fd5b5061018f6104753660046119f0565b610f24565b34801561048657600080fd5b50610221611021565b34801561049b57600080fd5b50610221600080516020611d7583398151915281565b60006001600160e01b03198216637965db0b60e01b14806104e257506301ffc9a760e01b6001600160e01b03198316145b92915050565b600080516020611d7583398151915261050081611179565b6001600160a01b038216600090815260016020526040902060040154610100900460ff166105495760405162461bcd60e51b815260040161054090611bad565b60405180910390fd5b6001600160a01b03821660009081526001602081815260408084208481559283018490556002830184905560038084018590556004909301805461ffff19169055919052902054801561067c576002546000906105a890600190611bf2565b90506000600282815481106105bf576105bf611c05565b6000918252602090912001546001600160a01b031690508060026105e4600186611bf2565b815481106105f4576105f4611c05565b600091825260208083209190910180546001600160a01b0319166001600160a01b039485161790559183168152600390915260409020839055600280548061063e5761063e611c1b565b60008281526020808220830160001990810180546001600160a01b03191690559092019092556001600160a01b038716825260039052604081205550505b6040516001600160a01b038416907f6d190f9bd28c37e4c44a449e949b5dcd9b094fe19ff42db0c0a772565407795690600090a2505050565b600080516020611d758339815191526106cd81611179565b6001600160a01b0387166107235760405162461bcd60e51b815260206004820152601860248201527f496e76616c696420656d706c6f796565206164647265737300000000000000006044820152606401610540565b6001600160a01b038716600090815260016020526040902060040154610100900460ff161561078c5760405162461bcd60e51b815260206004820152601560248201527453747265616d20616c72656164792065786973747360581b6044820152606401610540565b60006107ce8787878080601f01602080910402602001604051908101604052809392919081815260200183838082843760009201919091525061118692505050565b905060006107db8561119b565b905060006107e88561119b565b905060006107f660006111b2565b90506040518060c0016040528085815260200184815260200183815260200182815260200160001515815260200160011515815250600160008d6001600160a01b03166001600160a01b031681526020019081526020016000206000820151816000015560208201518160010155604082015181600201556060820151816003015560808201518160040160006101000a81548160ff02191690831515021790555060a08201518160040160016101000a81548160ff0219169083151502179055509050506108c4846111c8565b506108cf848c6111d8565b506108d9836111c8565b506108e3826111c8565b506108ed816111c8565b506001600160a01b038b16600090815260036020526040812054900361096857600280546001810182557f405787fa12a823e0f2b7631cc41b3ba8828b3321ca811111fa75cd3aa3bb5ace0180546001600160a01b0319166001600160a01b038e169081179091559054600091825260036020526040909120555b60405167ffffffffffffffff881681526001600160a01b038c16907fb6e062a7e030363b63a7839dff1a544048a1d0e89b684d0538a55a944d10554b9060200160405180910390a25050505050505050505050565b6001600160a01b0381166000908152600160208181526040808420815160c081018352815481529381015492840192909252600282015490830152600381015460608301526004015460ff8082161515608084015261010090910416151560a0820181905282918291829190610a455760405162461bcd60e51b815260040161054090611bad565b80516020820151604083015160609093015191989097509195509350915050565b600082815260208190526040902060010154610a8181611179565b610a8b83836111eb565b50505050565b6001600160a01b0381163314610aba5760405163334bd91960e11b815260040160405180910390fd5b610ac4828261127d565b505050565b6002546000908210610b135760405162461bcd60e51b8152602060048201526013602482015272496e646578206f7574206f6620626f756e647360681b6044820152606401610540565b60028281548110610b2657610b26611c05565b6000918252602090912001546001600160a01b031692915050565b6000610b4b6112e8565b905090565b6002546060908310610b9b5760405162461bcd60e51b81526020600482015260146024820152734f6666736574206f7574206f6620626f756e647360601b6044820152606401610540565b6000610ba78385611c31565b600254909150811115610bb957506002545b610bc38482611bf2565b67ffffffffffffffff811115610bdb57610bdb611c44565b604051908082528060200260200182016040528015610c04578160200160208202803683370190505b509150835b81811015610c745760028181548110610c2457610c24611c05565b6000918252602090912001546001600160a01b031683610c448784611bf2565b81518110610c5457610c54611c05565b6001600160a01b0390921660209283029190910190910152600101610c09565b505092915050565b6000918252602082815260408084206001600160a01b0393909316845291905290205460ff1690565b600080516020611d75833981519152610cbd81611179565b6001600160a01b038216600090815260016020526040902060040154610100900460ff16610cfd5760405162461bcd60e51b815260040161054090611bad565b6001600160a01b03821660009081526001602052604090206004015460ff1615610d5a5760405162461bcd60e51b815260206004820152600e60248201526d105b1c9958591e481c185d5cd95960921b6044820152606401610540565b6001600160a01b0382166000818152600160208190526040808320600401805460ff1916909217909155517fa3cec158dd61ad7fad02b025a7140acc826d6e778f78db24b46ff4868013d4dd9190a25050565b6000816001600160801b031611610e065760405162461bcd60e51b815260206004820152601d60248201527f416d6f756e74206d7573742062652067726561746572207468616e20300000006044820152606401610540565b3360009081526001602052604090206004810154610100900460ff16610e605760405162461bcd60e51b815260206004820152600f60248201526e139bc81cdd1c99585b48199bdd5b99608a1b6044820152606401610540565b610e768160030154610e71846111b2565b61131f565b60038201819055610e86906111c8565b5060405133906001600160801b03841680156108fc02916000818181858888f19350505050158015610ebc573d6000803e3d6000fd5b506040516001600160801b038316815233907f4bd50b38ad6944dcad8281f6eaa36ae63ad5d893ef8975a57b41a9ba7caa20779060200160405180910390a25050565b600082815260208190526040902060010154610f1a81611179565b610a8b838361127d565b600080516020611d75833981519152610f3c81611179565b6001600160a01b038216600090815260016020526040902060040154610100900460ff16610f7c5760405162461bcd60e51b815260040161054090611bad565b6001600160a01b03821660009081526001602052604090206004015460ff16610fd45760405162461bcd60e51b815260206004820152600a602482015269139bdd081c185d5cd95960b21b6044820152606401610540565b6001600160a01b038216600081815260016020526040808220600401805460ff19169055517f9daa495ea50c111ff2e29a61b762a95626864c63ed421249d542c4480892a3ec9190a25050565b3360009081526001602052604081206004810154610100900460ff1661107b5760405162461bcd60e51b815260206004820152600f60248201526e139bc81cdd1c99585b48199bdd5b99608a1b6044820152606401610540565b600481015460ff16156110c35760405162461bcd60e51b815260206004820152601060248201526f14dd1c99585b481a5cc81c185d5cd95960821b6044820152606401610540565b60006110ce4361119b565b905060006110e0828460020154611351565b905060006110f2838560010154611383565b9050600061110c8560000154611107846113b5565b6113c2565b9050611122838261111d60006111b2565b6113f4565b9050600061113482876003015461143f565b905061114081336111d8565b508060405190975033907f6dfea5efc7451d0f6acdc50f4355cd3422b8b8d7abd6ac50873e641fa317db2890600090a250505050505090565b6111838133611462565b50565b60006111948383600661149f565b9392505050565b60006104e28267ffffffffffffffff1660056115a4565b60006104e2826001600160801b031660066115a4565b60006111d48230611639565b5090565b60006111e48383611639565b5090919050565b60006111f78383610c7c565b611275576000838152602081815260408083206001600160a01b03861684529091529020805460ff1916600117905561122d3390565b6001600160a01b0316826001600160a01b0316847f2f8788117e7eff1d82e926ec794901d17c78024a50270940304540a733656f0d60405160405180910390a45060016104e2565b5060006104e2565b60006112898383610c7c565b15611275576000838152602081815260408083206001600160a01b0386168085529252808320805460ff1916905551339286917ff6391f5c32d9c69d2a47ea670b442974b53935d1edc7fd64eb21e047a839171b9190a45060016104e2565b6000466001036112f85750600190565b4662aa36a703611309575061271190565b46617a6903611319575060001990565b50600090565b6000826113335761133060006111b2565b92505b816113455761134260006111b2565b91505b611194838360006116b6565b60008261136557611362600061119b565b92505b8161137757611374600061119b565b91505b6111948383600061176a565b60008261139757611394600061119b565b92505b816113a9576113a6600061119b565b91505b611194838360006117d1565b60006104e2826006611838565b6000826113d6576113d360006111b2565b92505b816113e8576113e560006111b2565b91505b6111948383600061188a565b6000836114085761140560006118f1565b93505b8261141a5761141760006111b2565b92505b8161142c5761142960006111b2565b91505b61143784848461190f565b949350505050565b6000826114535761145060006111b2565b92505b816113a9576113a660006111b2565b61146c8282610c7c565b61149b5760405163e2517d3f60e01b81526001600160a01b038216600482015260248101839052604401610540565b5050565b600080516020611d358339815191525460405163045fc19560e11b8152600091600080516020611d55833981519152916001600160a01b03909116906308bf832a906114f5908890339089908990600401611c7c565b6020604051808303816000875af1158015611514573d6000803e3d6000fd5b505050506040513d601f19601f820116820180604052508101906115389190611ce7565b8154604051630f8e573b60e21b8152600481018390523360248201529193506001600160a01b031690633e395cec90604401600060405180830381600087803b15801561158457600080fd5b505af1158015611598573d6000803e3d6000fd5b50505050509392505050565b600080516020611d3583398151915254604051639cd07acb60e01b8152600091600080516020611d55833981519152916001600160a01b0390911690639cd07acb906115f69087908790600401611d00565b6020604051808303816000875af1158015611615573d6000803e3d6000fd5b505050506040513d601f19601f820116820180604052508101906114379190611ce7565b6000600080516020611d558339815191528054604051635ca4b5b160e11b8152600481018690526001600160a01b03858116602483015292935091169063b9496b6290604401600060405180830381600087803b15801561169957600080fd5b505af11580156116ad573d6000803e3d6000fd5b50505050505050565b60008082156116ca5750600160f81b6116ce565b5060005b600080516020611d358339815191525460405163022f65e760e31b8152600080516020611d55833981519152916001600160a01b03169063117b2f389061171d90899089908790600401611d14565b6020604051808303816000875af115801561173c573d6000803e3d6000fd5b505050506040513d601f19601f820116820180604052508101906117609190611ce7565b9695505050505050565b600080821561177e5750600160f81b611782565b5060005b600080516020611d3583398151915254604051631391547f60e01b8152600080516020611d55833981519152916001600160a01b031690631391547f9061171d90899089908790600401611d14565b60008082156117e55750600160f81b6117e9565b5060005b600080516020611d35833981519152546040516303056db360e31b8152600080516020611d55833981519152916001600160a01b03169063182b6d989061171d90899089908790600401611d14565b600080516020611d35833981519152546040516307227b9160e21b8152600091600080516020611d55833981519152916001600160a01b0390911690631c89ee44906115f69087908790600401611d00565b600080821561189e5750600160f81b6118a2565b5060005b600080516020611d3583398151915254604051630afe14ad60e31b8152600080516020611d55833981519152916001600160a01b0316906357f0a5689061171d90899089908790600401611d14565b60006104e282611902576000611905565b60015b60ff1660006115a4565b600080600080516020611d558339815191526001810154604051637702dcff60e01b81526004810188905260248101879052604481018690529192506001600160a01b031690637702dcff906064016020604051808303816000875af115801561197d573d6000803e3d6000fd5b505050506040513d601f19601f820116820180604052508101906119a19190611ce7565b95945050505050565b6000602082840312156119bc57600080fd5b81356001600160e01b03198116811461119457600080fd5b80356001600160a01b03811681146119eb57600080fd5b919050565b600060208284031215611a0257600080fd5b611194826119d4565b803567ffffffffffffffff811681146119eb57600080fd5b60008060008060008060a08789031215611a3c57600080fd5b611a45876119d4565b955060208701359450604087013567ffffffffffffffff80821115611a6957600080fd5b818901915089601f830112611a7d57600080fd5b813581811115611a8c57600080fd5b8a6020828501011115611a9e57600080fd5b602083019650809550505050611ab660608801611a0b565b9150611ac460808801611a0b565b90509295509295509295565b600060208284031215611ae257600080fd5b5035919050565b60008060408385031215611afc57600080fd5b82359150611b0c602084016119d4565b90509250929050565b60008060408385031215611b2857600080fd5b50508035926020909101359150565b6020808252825182820181905260009190848201906040850190845b81811015611b785783516001600160a01b031683529284019291840191600101611b53565b50909695505050505050565b600060208284031215611b9657600080fd5b81356001600160801b038116811461119457600080fd5b60208082526015908201527414dd1c99585b48191bd95cc81b9bdd08195e1a5cdd605a1b604082015260600190565b634e487b7160e01b600052601160045260246000fd5b818103818111156104e2576104e2611bdc565b634e487b7160e01b600052603260045260246000fd5b634e487b7160e01b600052603160045260246000fd5b808201808211156104e2576104e2611bdc565b634e487b7160e01b600052604160045260246000fd5b60548110611c7857634e487b7160e01b600052602160045260246000fd5b9052565b8481526000602060018060a01b038616602084015260806040840152845180608085015260005b81811015611cbf5786810183015185820160a001528201611ca3565b50600060a0828601015260a0601f19601f830116850101925050506119a16060830184611c5a565b600060208284031215611cf957600080fd5b5051919050565b828152604081016111946020830184611c5a565b92835260208301919091526001600160f81b03191660408201526060019056fe9e7b61f58c47dc699ac88507c4f5bb9f121c03808c5676a8078fe583e46497019e7b61f58c47dc699ac88507c4f5bb9f121c03808c5676a8078fe583e4649700fd70517941c75212b0f9013e45c47a37d6d983c5304288c7af285f2ea40cbba7a2646970667358221220912a69f44191303eec4ba8a4d6fa4b0651a5ad291fc79a3d262f9b8a1e5d165964736f6c63430008180033",
  "linkReferences": {},
  "deployedLinkReferences": {}
}