{
  "_format": "hh-sol-artifact-1",
  "contractName": "EncryptedPayrollV2",
  "sourceName": "contracts/EncryptedPayrollV2.sol",
  "abi": [
    {
      "inputs": [],
      "stateMutability": "nonpayable",
      "type": "constructor"
    },
    {
      "inputs": [],
      "name": "AccessControlBadConfirmation",
      "type": "error"
    },
    {
      "inputs": [
        {
          "internalType": "address",
          "name": "account",
          "type": "address"
        },
        {
          "internalType": "bytes32",
          "name": "neededRole",
          "type": "bytes32"
        }
      ],
      "name": "AccessControlUnauthorizedAccount",
      "type": "error"
    },
    {
      "inputs": [],
      "name": "ZamaProtocolUnsupported",
      "type": "error"
    },
    {
      "anonymous": false,
      "inputs": [
        {
          "indexed": true,
          "internalType": "address",
          "name": "hook",
          "type": "address"
        }
      ],
      "name": "HookApproved",
      "type": "event"
    },
    {
      "anonymous": false,
      "inputs": [
        {
          "indexed": true,
          "internalType": "address",
          "name": "employee",
          "type": "address"
        },
        {
          "indexed": true,
          "internalType": "address",
          "name": "hook",
          "type": "address"
        }
      ],
      "name": "HookRegistered",
      "type": "event"
    },
    {
      "anonymous": false,
      "inputs": [
        {
          "indexed": true,
          "internalType": "address",
          "name": "employee",
          "type": "address"
        }
      ],
      "name": "HookRemoved",
      "type": "event"
    },
    {
      "anonymous": false,
      "inputs": [
        {
          "indexed": true,
          "internalType": "address",
          "name": "hook",
          "type": "address"
        }
      ],
      "name": "HookRevoked",
      "type": "event"
    },
    {
      "anonymous": false,
      "inputs": [
        {
          "indexed": true,
          "internalType": "bytes32",
          "name": "role",
          "type": "bytes32"
        },
        {
          "indexed": true,
          "internalType": "bytes32",
          "name": "previousAdminRole",
          "type": "bytes32"
        },
        {
          "indexed": true,
          "internalType": "bytes32",
          "name": "newAdminRole",
          "type": "bytes32"
        }
      ],
      "name": "RoleAdminChanged",
      "type": "event"
    },
    {
      "anonymous": false,
      "inputs": [
        {
          "indexed": true,
          "internalType": "bytes32",
          "name": "role",
          "type": "bytes32"
        },
        {
          "indexed": true,
          "internalType": "address",
          "name": "account",
          "type": "address"
        },
        {
          "indexed": true,
          "internalType": "address",
          "name": "sender",
          "type": "address"
        }
      ],
      "name": "RoleGranted",
      "type": "event"
    },
    {
      "anonymous": false,
      "inputs": [
        {
          "indexed": true,
          "internalType": "bytes32",
          "name": "role",
          "type": "bytes32"
        },
        {
          "indexed": true,
          "internalType": "address",
          "name": "account",
          "type": "address"
        },
        {
          "indexed": true,
          "internalType": "address",
          "name": "sender",
          "type": "address"
        }
      ],
      "name": "RoleRevoked",
      "type": "event"
    },
    {
      "anonymous": false,
      "inputs": [
        {
          "indexed": true,
          "internalType": "address",
          "name": "employee",
          "type": "address"
        },
        {
          "indexed": false,
          "internalType": "uint256",
          "name": "amount",
          "type": "uint256"
        }
      ],
      "name": "SalaryWithdrawn",
      "type": "event"
    },
    {
      "anonymous": false,
      "inputs": [
        {
          "indexed": true,
          "internalType": "address",
          "name": "employee",
          "type": "address"
        }
      ],
      "name": "StreamCanceled",
      "type": "event"
    },
    {
      "anonymous": false,
      "inputs": [
        {
          "indexed": true,
          "internalType": "address",
          "name": "employee",
          "type": "address"
        },
        {
          "indexed": false,
          "internalType": "uint64",
          "name": "startBlock",
          "type": "uint64"
        }
      ],
      "name": "StreamCreated",
      "type": "event"
    },
    {
      "anonymous": false,
      "inputs": [
        {
          "indexed": true,
          "internalType": "address",
          "name": "employee",
          "type": "address"
        }
      ],
      "name": "StreamPaused",
      "type": "event"
    },
    {
      "anonymous": false,
      "inputs": [
        {
          "indexed": true,
          "internalType": "address",
          "name": "employee",
          "type": "address"
        }
      ],
      "name": "StreamResumed",
      "type": "event"
    },
    {
      "anonymous": false,
      "inputs": [
        {
          "indexed": true,
          "internalType": "address",
          "name": "employee",
          "type": "address"
        },
        {
          "indexed": false,
          "internalType": "bytes32",
          "name": "claimableHandle",
          "type": "bytes32"
        }
      ],
      "name": "WithdrawalReady",
      "type": "event"
    },
    {
      "inputs": [],
      "name": "DEFAULT_ADMIN_ROLE",
      "outputs": [
        {
          "internalType": "bytes32",
          "name": "",
          "type": "bytes32"
        }
      ],
      "stateMutability": "view",
      "type": "function"
    },
    {
      "inputs": [],
      "name": "HR_ROLE",
      "outputs": [
        {
          "internalType": "bytes32",
          "name": "",
          "type": "bytes32"
        }
      ],
      "stateMutability": "view",
      "type": "function"
    },
    {
      "inputs": [
        {
          "internalType": "address",
          "name": "hook",
          "type": "address"
        }
      ],
      "name": "approveHook",
      "outputs": [],
      "stateMutability": "nonpayable",
      "type": "function"
    },
    {
      "inputs": [
        {
          "internalType": "address",
          "name": "",
          "type": "address"
        }
      ],
      "name": "approvedHooks",
      "outputs": [
        {
          "internalType": "bool",
          "name": "",
          "type": "bool"
        }
      ],
      "stateMutability": "view",
      "type": "function"
    },
    {
      "inputs": [
        {
          "internalType": "address",
          "name": "employee",
          "type": "address"
        }
      ],
      "name": "cancelStream",
      "outputs": [],
      "stateMutability": "nonpayable",
      "type": "function"
    },
    {
      "inputs": [],
      "name": "confidentialProtocolId",
      "outputs": [
        {
          "internalType": "uint256",
          "name": "",
          "type": "uint256"
        }
      ],
      "stateMutability": "view",
      "type": "function"
    },
    {
      "inputs": [
        {
          "internalType": "address",
          "name": "employee",
          "type": "address"
        },
        {
          "internalType": "externalEuint128",
          "name": "encryptedSalary",
          "type": "bytes32"
        },
        {
          "internalType": "bytes",
          "name": "salaryProof",
          "type": "bytes"
        },
        {
          "internalType": "uint64",
          "name": "startBlock",
          "type": "uint64"
        },
        {
          "internalType": "uint64",
          "name": "cliffBlock",
          "type": "uint64"
        }
      ],
      "name": "createStream",
      "outputs": [],
      "stateMutability": "nonpayable",
      "type": "function"
    },
    {
      "inputs": [
        {
          "internalType": "address",
          "name": "",
          "type": "address"
        }
      ],
      "name": "employeeHooks",
      "outputs": [
        {
          "internalType": "address",
          "name": "",
          "type": "address"
        }
      ],
      "stateMutability": "view",
      "type": "function"
    },
    {
      "inputs": [
        {
          "internalType": "uint256",
          "name": "index",
          "type": "uint256"
        }
      ],
      "name": "getEmployeeByIndex",
      "outputs": [
        {
          "internalType": "address",
          "name": "employee",
          "type": "address"
        }
      ],
      "stateMutability": "view",
      "type": "function"
    },
    {
      "inputs": [
        {
          "internalType": "uint256",
          "name": "offset",
          "type": "uint256"
        },
        {
          "internalType": "uint256",
          "name": "limit",
          "type": "uint256"
        }
      ],
      "name": "getEmployees",
      "outputs": [
        {
          "internalType": "address[]",
          "name": "employees",
          "type": "address[]"
        }
      ],
      "stateMutability": "view",
      "type": "function"
    },
    {
      "inputs": [
        {
          "internalType": "bytes32",
          "name": "role",
          "type": "bytes32"
        }
      ],
      "name": "getRoleAdmin",
      "outputs": [
        {
          "internalType": "bytes32",
          "name": "",
          "type": "bytes32"
        }
      ],
      "stateMutability": "view",
      "type": "function"
    },
    {
      "inputs": [
        {
          "internalType": "address",
          "name": "employee",
          "type": "address"
        }
      ],
      "name": "getStream",
      "outputs": [
        {
          "internalType": "euint128",
          "name": "salaryPerBlock",
          "type": "bytes32"
        },
        {
          "internalType": "uint64",
          "name": "startBlock",
          "type": "uint64"
        },
        {
          "internalType": "uint64",
          "name": "cliffBlock",
          "type": "uint64"
        },
        {
          "internalType": "euint128",
          "name": "claimedAmount",
          "type": "bytes32"
        }
      ],
      "stateMutability": "view",
      "type": "function"
    },
    {
      "inputs": [],
      "name": "getStreamCount",
      "outputs": [
        {
          "internalType": "uint256",
          "name": "count",
          "type": "uint256"
        }
      ],
      "stateMutability": "view",
      "type": "function"
    },
    {
      "inputs": [
        {
          "internalType": "bytes32",
          "name": "role",
          "type": "bytes32"
        },
        {
          "internalType": "address",
          "name": "account",
          "type": "address"
        }
      ],
      "name": "grantRole",
      "outputs": [],
      "stateMutability": "nonpayable",
      "type": "function"
    },
    {
      "inputs": [
        {
          "internalType": "bytes32",
          "name": "role",
          "type": "bytes32"
        },
        {
          "internalType": "address",
          "name": "account",
          "type": "address"
        }
      ],
      "name": "hasRole",
      "outputs": [
        {
          "internalType": "bool",
          "name": "",
          "type": "bool"
        }
      ],
      "stateMutability": "view",
      "type": "function"
    },
    {
      "inputs": [
        {
          "internalType": "address",
          "name": "employee",
          "type": "address"
        }
      ],
      "name": "hasStream",
      "outputs": [
        {
          "internalType": "bool",
          "name": "exists",
          "type": "bool"
        }
      ],
      "stateMutability": "view",
      "type": "function"
    },
    {
      "inputs": [
        {
          "internalType": "address",
          "name": "employee",
          "type": "address"
        }
      ],
      "name": "pauseStream",
      "outputs": [],
      "stateMutability": "nonpayable",
      "type": "function"
    },
    {
      "inputs": [
        {
          "internalType": "address",
          "name": "employee",
          "type": "address"
        },
        {
          "internalType": "address",
          "name": "hook",
          "type": "address"
        }
      ],
      "name": "registerHook",
      "outputs": [],
      "stateMutability": "nonpayable",
      "type": "function"
    },
    {
      "inputs": [
        {
          "internalType": "address",
          "name": "employee",
          "type": "address"
        }
      ],
      "name": "removeHook",
      "outputs": [],
      "stateMutability": "nonpayable",
      "type": "function"
    },
    {
      "inputs": [
        {
          "internalType": "bytes32",
          "name": "role",
          "type": "bytes32"
        },
        {
          "internalType": "address",
          "name": "callerConfirmation",
          "type": "address"
        }
      ],
      "name": "renounceRole",
      "outputs": [],
      "stateMutability": "nonpayable",
      "type": "function"
    },
    {
      "inputs": [],
      "name": "requestWithdrawal",
      "outputs": [
        {
          "internalType": "bytes32",
          "name": "claimableHandle",
          "type": "bytes32"
        }
      ],
      "stateMutability": "nonpayable",
      "type": "function"
    },
    {
      "inputs": [
        {
          "internalType": "address",
          "name": "employee",
          "type": "address"
        }
      ],
      "name": "resumeStream",
      "outputs": [],
      "stateMutability": "nonpayable",
      "type": "function"
    },
    {
      "inputs": [
        {
          "internalType": "address",
          "name": "hook",
          "type": "address"
        }
      ],
      "name": "revokeHook",
      "outputs": [],
      "stateMutability": "nonpayable",
      "type": "function"
    },
    {
      "inputs": [
        {
          "internalType": "bytes32",
          "name": "role",
          "type": "bytes32"
        },
        {
          "internalType": "address",
          "name": "account",
          "type": "address"
        }
      ],
      "name": "revokeRole",
      "outputs": [],
      "stateMutability": "nonpayable",
      "type": "function"
    },
    {
      "inputs": [
        {
          "internalType": "address",
          "name": "",
          "type": "address"
        }
      ],
      "name": "streams",
      "outputs": [
        {
          "internalType": "euint128",
          "name": "salaryPerBlock",
          "type": "bytes32"
        },
        {
          "internalType": "uint64",
          "name": "startBlock",
          "type": "uint64"
        },
        {
          "internalType": "uint64",
          "name": "cliffBlock",
          "type": "uint64"
        },
        {
          "internalType": "euint128",
          "name": "claimedAmount",
          "type": "bytes32"
        },
        {
          "internalType": "bool",
          "name": "isPaused",
          "type": "bool"
        },
        {
          "internalType": "bool",
          "name": "exists",
          "type": "bool"
        }
      ],
      "stateMutability": "view",
      "type": "function"
    },
    {
      "inputs": [
        {
          "internalType": "uint128",
          "name": "amount",
          "type": "uint128"
        }
      ],
      "name": "submitWithdrawal",
      "outputs": [],
      "stateMutability": "nonpayable",
      "type": "function"
    },
    {
      "inputs": [
        {
          "internalType": "bytes4",
          "name": "interfaceId",
          "type": "bytes4"
        }
      ],
      "name": "supportsInterface",
      "outputs": [
        {
          "internalType": "bool",
          "name": "",
          "type": "bool"
        }
      ],
      "stateMutability": "view",
      "type": "function"
    },
    {
      "inputs": [
        {
          "internalType": "address",
          "name": "",
          "type": "address"
        }
      ],
      "name": "withdrawals",
      "outputs": [
        {
          "internalType": "euint128",
          "name": "",
          "type": "bytes32"
        }
      ],
      "stateMutability": "view",
      "type": "function"
    },
    {
      "stateMutability": "payable",
      "type": "receive"
    }
  ],
  "bytecode": "0x60806040523480156200001157600080fd5b50620000c9620000206200010a565b80517f9e7b61f58c47dc699ac88507c4f5bb9f121c03808c5676a8078fe583e464970080546001600160a01b03199081166001600160a01b039384161790915560208301517f9e7b61f58c47dc699ac88507c4f5bb9f121c03808c5676a8078fe583e46497018054831691841691909117905560408301517f9e7b61f58c47dc699ac88507c4f5bb9f121c03808c5676a8078fe583e46497028054909216921691909117905550565b620000d660003362000280565b50620001037ffd70517941c75212b0f9013e45c47a37d6d983c5304288c7af285f2ea40cbba73362000280565b506200032f565b604080516060810182526000808252602082018190529181019190915246600103620001665750604080516060808201835260008083526020808401829052928401819052835191820184528082529181018290529182015290565b4662aa36a703620001e75750604080516060808201835260008083526020808401829052928401528251908101835273f0ffdc93b7e186bc2f8cb3daa75d86d1930a433d81527392c920834ec8941d2c77d188936e1f7a6f49c1279181019190915273be0e383937d564d7ff0bc3b46c51f0bf8d5c311a9181019190915290565b46617a690362000267575060408051606080820183526000808352602080840182905292840152825190810183527350157cffd6bbfa2dece204a89ec419c23ef5755d815273e3a9105a3a932253a70f126eb1e3b589c643dd249181019190915273be0e383937d564d7ff0bc3b46c51f0bf8d5c311a9181019190915290565b6040516373cac13b60e01b815260040160405180910390fd5b6000828152602081815260408083206001600160a01b038516845290915281205460ff1662000325576000838152602081815260408083206001600160a01b03861684529091529020805460ff19166001179055620002dc3390565b6001600160a01b0316826001600160a01b0316847f2f8788117e7eff1d82e926ec794901d17c78024a50270940304540a733656f0d60405160405180910390a450600162000329565b5060005b92915050565b612256806200033f6000396000f3fe6080604052600436106101bb5760003560e01c806383699275116100ec578063cfa0e4e51161008a578063d7290fed11610064578063d7290fed14610604578063dbaf214514610624578063e5adf3ab14610639578063f3c6a1981461065957600080fd5b8063cfa0e4e5146105a4578063cfa91906146105c4578063d547741f146105e457600080fd5b806391d14854116100c657806391d148541461052a578063a217fddf1461054a578063c0f220841461055f578063cccb649d1461057457600080fd5b806383699275146104485780638927b030146104e85780638e61aedb146104fd57600080fd5b806336568abe116101595780634aa2a9c2116101335780634aa2a9c21461036c57806359420e48146103ba57806359dda57c146103da5780637a9262a21461041b57600080fd5b806336568abe1461030c5780633fff685b1461032c57806349707add1461034c57600080fd5b806319edaf211161019557806319edaf211461023e57806321ec4d301461028e578063248a9ca3146102ae5780632f2ff15d146102ec57600080fd5b806301ffc9a7146101c75780630bf2b21a146101fc5780631886a81f1461021e57600080fd5b366101c257005b600080fd5b3480156101d357600080fd5b506101e76101e2366004611dde565b61067b565b60405190151581526020015b60405180910390f35b34801561020857600080fd5b5061021c610217366004611e24565b6106b2565b005b34801561022a57600080fd5b5061021c610239366004611e56565b61091f565b34801561024a57600080fd5b5061025e610259366004611e24565b610ccd565b6040516101f394939291909384526001600160401b03928316602085015291166040830152606082015260800190565b34801561029a57600080fd5b5061021c6102a9366004611e24565b610d86565b3480156102ba57600080fd5b506102de6102c9366004611f02565b60009081526020819052604090206001015490565b6040519081526020016101f3565b3480156102f857600080fd5b5061021c610307366004611f1b565b610e2b565b34801561031857600080fd5b5061021c610327366004611f1b565b610e56565b34801561033857600080fd5b5061021c610347366004611f47565b610e8e565b34801561035857600080fd5b5061021c610367366004611e24565b610f9a565b34801561037857600080fd5b506103a2610387366004611e24565b6004602052600090815260409020546001600160a01b031681565b6040516001600160a01b0390911681526020016101f3565b3480156103c657600080fd5b506103a26103d5366004611f02565b610fef565b3480156103e657600080fd5b506101e76103f5366004611e24565b6001600160a01b0316600090815260016020526040902060030154610100900460ff1690565b34801561042757600080fd5b506102de610436366004611e24565b60066020526000908152604090205481565b34801561045457600080fd5b506104ab610463366004611e24565b600160208190526000918252604090912080549181015460028201546003909201546001600160401b0380831693600160401b90930416919060ff8082169161010090041686565b604080519687526001600160401b0395861660208801529390941692850192909252606084015215156080830152151560a082015260c0016101f3565b3480156104f457600080fd5b506102de611067565b34801561050957600080fd5b5061051d610518366004611f71565b611076565b6040516101f39190611f93565b34801561053657600080fd5b506101e7610545366004611f1b565b6111a1565b34801561055657600080fd5b506102de600081565b34801561056b57600080fd5b506002546102de565b34801561058057600080fd5b506101e761058f366004611e24565b60056020526000908152604090205460ff1681565b3480156105b057600080fd5b5061021c6105bf366004611e24565b6111ca565b3480156105d057600080fd5b5061021c6105df366004611fe0565b6112d2565b3480156105f057600080fd5b5061021c6105ff366004611f1b565b6114b8565b34801561061057600080fd5b5061021c61061f366004611e24565b6114dd565b34801561063057600080fd5b506102de6115da565b34801561064557600080fd5b5061021c610654366004611e24565b611773565b34801561066557600080fd5b506102de60008051602061220183398151915281565b60006001600160e01b03198216637965db0b60e01b14806106ac57506301ffc9a760e01b6001600160e01b03198316145b92915050565b6000805160206122018339815191526106ca816117db565b6001600160a01b038216600090815260016020526040902060030154610100900460ff166107135760405162461bcd60e51b815260040161070a90612009565b60405180910390fd5b6001600160a01b038083166000908152600460205260409020541680156107a6576001600160a01b0383811660008181526001602052604090819020600201549051633180db9960e11b81526004810192909252602482015290821690636301b73290604401600060405180830381600087803b15801561079357600080fd5b505af19250505080156107a4575060015b505b6001600160a01b038316600090815260016020818152604080842084815592830180546fffffffffffffffffffffffffffffffff19169055600283018490556003928301805461ffff1916905591905290205480156108e5576002546000906108119060019061204e565b905060006002828154811061082857610828612061565b6000918252602090912001546001600160a01b0316905080600261084d60018661204e565b8154811061085d5761085d612061565b600091825260208083209190910180546001600160a01b0319166001600160a01b03948516179055918316815260039091526040902083905560028054806108a7576108a7612077565b60008281526020808220830160001990810180546001600160a01b03191690559092019092556001600160a01b038816825260039052604081205550505b6040516001600160a01b038516907f6d190f9bd28c37e4c44a449e949b5dcd9b094fe19ff42db0c0a772565407795690600090a250505050565b600080516020612201833981519152610937816117db565b6001600160a01b03871661098d5760405162461bcd60e51b815260206004820152601860248201527f496e76616c696420656d706c6f79656520616464726573730000000000000000604482015260640161070a565b6001600160a01b038716600090815260016020526040902060030154610100900460ff16156109f65760405162461bcd60e51b815260206004820152601560248201527453747265616d20616c72656164792065786973747360581b604482015260640161070a565b6000610a388787878080601f0160208091040260200160405190810160405280939291908181526020018383808284376000920191909152506117e892505050565b90506000610a4660006117fd565b90506040518060c00160405280838152602001866001600160401b03168152602001856001600160401b0316815260200182815260200160001515815260200160011515815250600160008b6001600160a01b03166001600160a01b031681526020019081526020016000206000820151816000015560208201518160010160006101000a8154816001600160401b0302191690836001600160401b0316021790555060408201518160010160086101000a8154816001600160401b0302191690836001600160401b031602179055506060820151816002015560808201518160030160006101000a81548160ff02191690831515021790555060a08201518160030160016101000a81548160ff021916908315150217905550905050610b6c82611813565b50610b77828a611823565b50610b8181611813565b506001600160a01b0389166000908152600360205260408120549003610bfc57600280546001810182557f405787fa12a823e0f2b7631cc41b3ba8828b3321ca811111fa75cd3aa3bb5ace0180546001600160a01b0319166001600160a01b038c169081179091559054600091825260036020526040909120555b6001600160a01b03808a16600090815260046020526040902054168015610c7a576040516365f593cf60e01b81526001600160a01b038b81166004830152602482018590528216906365f593cf90604401600060405180830381600087803b158015610c6757600080fd5b505af1925050508015610c78575060015b505b6040516001600160401b03871681526001600160a01b038b16907fb6e062a7e030363b63a7839dff1a544048a1d0e89b684d0538a55a944d10554b9060200160405180910390a250505050505050505050565b6001600160a01b0381166000908152600160208181526040808420815160c08101835281548152938101546001600160401b0380821694860194909452600160401b900490921690830152600281015460608301526003015460ff8082161515608084015261010090910416151560a0820181905282918291829190610d655760405162461bcd60e51b815260040161070a90612009565b80516020820151604083015160609093015191989097509195509350915050565b6000610d91816117db565b6001600160a01b038216610dde5760405162461bcd60e51b8152602060048201526014602482015273496e76616c696420686f6f6b206164647265737360601b604482015260640161070a565b6001600160a01b038216600081815260056020526040808220805460ff19166001179055517f6b2d5736790b4cdb325004b8784c7b94dc55a32af9d82d1f6ceb5bd8c7c8573e9190a25050565b600082815260208190526040902060010154610e46816117db565b610e508383611836565b50505050565b6001600160a01b0381163314610e7f5760405163334bd91960e11b815260040160405180910390fd5b610e8982826118c8565b505050565b600080516020612201833981519152610ea6816117db565b6001600160a01b038316600090815260016020526040902060030154610100900460ff16610ee65760405162461bcd60e51b815260040161070a90612009565b6001600160a01b03821660009081526005602052604090205460ff16610f425760405162461bcd60e51b8152602060048201526011602482015270121bdbdac81b9bdd08185c1c1c9bdd9959607a1b604482015260640161070a565b6001600160a01b0383811660008181526004602052604080822080546001600160a01b0319169487169485179055517f4941bb78cc88c86e525a7d4711f15cc16bc7de17a618b8384373bdceb1c932289190a3505050565b6000610fa5816117db565b6001600160a01b038216600081815260056020526040808220805460ff19169055517ffa5ebd8c1fd1de9d275a47326e8fe93e1375aafa566297090355ed2f2366a0269190a25050565b60025460009082106110395760405162461bcd60e51b8152602060048201526013602482015272496e646578206f7574206f6620626f756e647360681b604482015260640161070a565b6002828154811061104c5761104c612061565b6000918252602090912001546001600160a01b031692915050565b6000611071611933565b905090565b60025460609083106110c15760405162461bcd60e51b81526020600482015260146024820152734f6666736574206f7574206f6620626f756e647360601b604482015260640161070a565b60006110cd838561208d565b6002549091508111156110df57506002545b6110e9848261204e565b6001600160401b03811115611100576111006120a0565b604051908082528060200260200182016040528015611129578160200160208202803683370190505b509150835b81811015611199576002818154811061114957611149612061565b6000918252602090912001546001600160a01b031683611169878461204e565b8151811061117957611179612061565b6001600160a01b039092166020928302919091019091015260010161112e565b505092915050565b6000918252602082815260408084206001600160a01b0393909316845291905290205460ff1690565b6000805160206122018339815191526111e2816117db565b6001600160a01b038216600090815260016020526040902060030154610100900460ff166112225760405162461bcd60e51b815260040161070a90612009565b6001600160a01b03821660009081526001602052604090206003015460ff161561127f5760405162461bcd60e51b815260206004820152600e60248201526d105b1c9958591e481c185d5cd95960921b604482015260640161070a565b6001600160a01b0382166000818152600160208190526040808320600301805460ff1916909217909155517fa3cec158dd61ad7fad02b025a7140acc826d6e778f78db24b46ff4868013d4dd9190a25050565b6000816001600160801b03161161132b5760405162461bcd60e51b815260206004820152601d60248201527f416d6f756e74206d7573742062652067726561746572207468616e2030000000604482015260640161070a565b3360009081526001602052604090206003810154610100900460ff166113855760405162461bcd60e51b815260206004820152600f60248201526e139bc81cdd1c99585b48199bdd5b99608a1b604482015260640161070a565b61139b8160020154611396846117fd565b61196a565b600282018190556113ab90611813565b50336000908152600460205260409020546001600160a01b0316801561143f5760006113d6846117fd565b90506113e28183611823565b50604051634cee7e4b60e11b8152336004820152602481018290526001600160a01b038316906399dcfc9690604401600060405180830381600087803b15801561142b57600080fd5b505af192505050801561143c575060015b50505b60405133906001600160801b03851680156108fc02916000818181858888f19350505050158015611474573d6000803e3d6000fd5b506040516001600160801b038416815233907f4bd50b38ad6944dcad8281f6eaa36ae63ad5d893ef8975a57b41a9ba7caa20779060200160405180910390a2505050565b6000828152602081905260409020600101546114d3816117db565b610e5083836118c8565b6000805160206122018339815191526114f5816117db565b6001600160a01b038216600090815260016020526040902060030154610100900460ff166115355760405162461bcd60e51b815260040161070a90612009565b6001600160a01b03821660009081526001602052604090206003015460ff1661158d5760405162461bcd60e51b815260206004820152600a602482015269139bdd081c185d5cd95960b21b604482015260640161070a565b6001600160a01b038216600081815260016020526040808220600301805460ff19169055517f9daa495ea50c111ff2e29a61b762a95626864c63ed421249d542c4480892a3ec9190a25050565b3360009081526001602052604081206003810154610100900460ff166116345760405162461bcd60e51b815260206004820152600f60248201526e139bc81cdd1c99585b48199bdd5b99608a1b604482015260640161070a565b600381015460ff161561167c5760405162461bcd60e51b815260206004820152601060248201526f14dd1c99585b481a5cc81c185d5cd95960821b604482015260640161070a565b600181015443906001600160401b03600160401b8204811681841690811015926000921610156116c15760018401546116be906001600160401b0316846120b6565b90505b60006116e285600001546116dd846001600160401b03166117fd565b61199c565b9050826116f6576116f360006117fd565b90505b60006117068287600201546119ce565b33600090815260066020526040902081905590508061172481611813565b5061172f8133611823565b508060405181815290985033907f9938eedb8a9ffc12ba57a3bd9b40c55822e7cb37c801fe3a10befa5961fec15e9060200160405180910390a25050505050505090565b60008051602061220183398151915261178b816117db565b6001600160a01b03821660008181526004602052604080822080546001600160a01b0319169055517f47d0871e905ac6550f54ba266e0d90d2dc8ed67a957c064ca3438eddf4e3fd899190a25050565b6117e58133611a00565b50565b60006117f683836006611a3d565b9392505050565b60006106ac826001600160801b03166006611b42565b600061181f8230611bdf565b5090565b600061182f8383611bdf565b5090919050565b600061184283836111a1565b6118c0576000838152602081815260408083206001600160a01b03861684529091529020805460ff191660011790556118783390565b6001600160a01b0316826001600160a01b0316847f2f8788117e7eff1d82e926ec794901d17c78024a50270940304540a733656f0d60405160405180910390a45060016106ac565b5060006106ac565b60006118d483836111a1565b156118c0576000838152602081815260408083206001600160a01b0386168085529252808320805460ff1916905551339286917ff6391f5c32d9c69d2a47ea670b442974b53935d1edc7fd64eb21e047a839171b9190a45060016106ac565b6000466001036119435750600190565b4662aa36a703611954575061271190565b46617a6903611964575060001990565b50600090565b60008261197e5761197b60006117fd565b92505b816119905761198d60006117fd565b91505b6117f683836000611c5c565b6000826119b0576119ad60006117fd565b92505b816119c2576119bf60006117fd565b91505b6117f683836000611d10565b6000826119e2576119df60006117fd565b92505b816119f4576119f160006117fd565b91505b6117f683836000611d77565b611a0a82826111a1565b611a395760405163e2517d3f60e01b81526001600160a01b03821660048201526024810183905260440161070a565b5050565b6000805160206121c18339815191525460405163045fc19560e11b81526000916000805160206121e1833981519152916001600160a01b03909116906308bf832a90611a939088903390899089906004016120ff565b6020604051808303816000875af1158015611ab2573d6000803e3d6000fd5b505050506040513d601f19601f82011682018060405250810190611ad69190612173565b8154604051630f8e573b60e21b8152600481018390523360248201529193506001600160a01b031690633e395cec90604401600060405180830381600087803b158015611b2257600080fd5b505af1158015611b36573d6000803e3d6000fd5b50505050509392505050565b6000805160206121c183398151915254604051639cd07acb60e01b81526000916000805160206121e1833981519152916001600160a01b0390911690639cd07acb90611b94908790879060040161218c565b6020604051808303816000875af1158015611bb3573d6000803e3d6000fd5b505050506040513d601f19601f82011682018060405250810190611bd79190612173565b949350505050565b60006000805160206121e18339815191528054604051635ca4b5b160e11b8152600481018690526001600160a01b03858116602483015292935091169063b9496b6290604401600060405180830381600087803b158015611c3f57600080fd5b505af1158015611c53573d6000803e3d6000fd5b50505050505050565b6000808215611c705750600160f81b611c74565b5060005b6000805160206121c18339815191525460405163022f65e760e31b81526000805160206121e1833981519152916001600160a01b03169063117b2f3890611cc3908990899087906004016121a0565b6020604051808303816000875af1158015611ce2573d6000803e3d6000fd5b505050506040513d601f19601f82011682018060405250810190611d069190612173565b9695505050505050565b6000808215611d245750600160f81b611d28565b5060005b6000805160206121c183398151915254604051630afe14ad60e31b81526000805160206121e1833981519152916001600160a01b0316906357f0a56890611cc3908990899087906004016121a0565b6000808215611d8b5750600160f81b611d8f565b5060005b6000805160206121c1833981519152546040516303056db360e31b81526000805160206121e1833981519152916001600160a01b03169063182b6d9890611cc3908990899087906004016121a0565b600060208284031215611df057600080fd5b81356001600160e01b0319811681146117f657600080fd5b80356001600160a01b0381168114611e1f57600080fd5b919050565b600060208284031215611e3657600080fd5b6117f682611e08565b80356001600160401b0381168114611e1f57600080fd5b60008060008060008060a08789031215611e6f57600080fd5b611e7887611e08565b95506020870135945060408701356001600160401b0380821115611e9b57600080fd5b818901915089601f830112611eaf57600080fd5b813581811115611ebe57600080fd5b8a6020828501011115611ed057600080fd5b602083019650809550505050611ee860608801611e3f565b9150611ef660808801611e3f565b90509295509295509295565b600060208284031215611f1457600080fd5b5035919050565b60008060408385031215611f2e57600080fd5b82359150611f3e60208401611e08565b90509250929050565b60008060408385031215611f5a57600080fd5b611f6383611e08565b9150611f3e60208401611e08565b60008060408385031215611f8457600080fd5b50508035926020909101359150565b6020808252825182820181905260009190848201906040850190845b81811015611fd45783516001600160a01b031683529284019291840191600101611faf565b50909695505050505050565b600060208284031215611ff257600080fd5b81356001600160801b03811681146117f657600080fd5b60208082526015908201527414dd1c99585b48191bd95cc81b9bdd08195e1a5cdd605a1b604082015260600190565b634e487b7160e01b600052601160045260246000fd5b818103818111156106ac576106ac612038565b634e487b7160e01b600052603260045260246000fd5b634e487b7160e01b600052603160045260246000fd5b808201808211156106ac576106ac612038565b634e487b7160e01b600052604160045260246000fd5b6001600160401b038281168282160390808211156120d6576120d6612038565b5092915050565b605481106120fb57634e487b7160e01b600052602160045260246000fd5b9052565b8481526000602060018060a01b038616602084015260806040840152845180608085015260005b818110156121425786810183015185820160a001528201612126565b50600060a0828601015260a0601f19601f8301168501019250505061216a60608301846120dd565b95945050505050565b60006020828403121561218557600080fd5b5051919050565b828152604081016117f660208301846120dd565b92835260208301919091526001600160f81b03191660408201526060019056fe9e7b61f58c47dc699ac88507c4f5bb9f121c03808c5676a8078fe583e46497019e7b61f58c47dc699ac88507c4f5bb9f121c03808c5676a8078fe583e4649700fd70517941c75212b0f9013e45c47a37d6d983c5304288c7af285f2ea40cbba7a264697066735822122019f656a615184f0de5012c24aab25a7fe530e1d2839d1e0a5cc79578261d846264736f6c63430008180033",
  "linkReferences": {},
  "deployedLinkReferences": {}
}