{
  "_format": "hh-sol-artifact-1",
  "contractName": "IncomeOracle",
  "sourceName": "contracts/IncomeOracle.sol",
  "abi": [
    {
      "inputs": [
        {
          "internalType": "address",
          "name": "_payroll",
          "type": "address"
        }
      ],
      "stateMutability": "nonpayable",
      "type": "constructor"
    },
    {
      "inputs": [],
      "name": "ZamaProtocolUnsupported",
      "type": "error"
    },
    {
      "anonymous": false,
      "inputs": [
        {
          "indexed": true,
          "internalType": "bytes32",
          "name": "requestId",
          "type": "bytes32"
        },
        {
          "indexed": true,
          "internalType": "address",
          "name": "verifier",
          "type": "address"
        },
        {
          "indexed": true,
          "internalType": "address",
          "name": "employee",
          "type": "address"
        },
        {
          "indexed": false,
          "internalType": "uint64",
          "name": "timestamp",
          "type": "uint64"
        }
      ],
      "name": "AttestationGenerated",
      "type": "event"
    },
    {
      "anonymous": false,
      "inputs": [
        {
          "indexed": true,
          "internalType": "bytes32",
          "name": "requestId",
          "type": "bytes32"
        },
        {
          "indexed": true,
          "internalType": "address",
          "name": "verifier",
          "type": "address"
        },
        {
          "indexed": true,
          "internalType": "address",
          "name": "employee",
          "type": "address"
        },
        {
          "indexed": false,
          "internalType": "uint64",
          "name": "timestamp",
          "type": "uint64"
        }
      ],
      "name": "AttestationRequested",
      "type": "event"
    },
    {
      "anonymous": false,
      "inputs": [
        {
          "indexed": true,
          "internalType": "address",
          "name": "employee",
          "type": "address"
        },
        {
          "indexed": false,
          "internalType": "uint64",
          "name": "timestamp",
          "type": "uint64"
        }
      ],
      "name": "IncomeAccumulated",
      "type": "event"
    },
    {
      "inputs": [
        {
          "internalType": "address",
          "name": "",
          "type": "address"
        }
      ],
      "name": "accumulatedIncome",
      "outputs": [
        {
          "internalType": "euint128",
          "name": "",
          "type": "bytes32"
        }
      ],
      "stateMutability": "view",
      "type": "function"
    },
    {
      "inputs": [],
      "name": "confidentialProtocolId",
      "outputs": [
        {
          "internalType": "uint256",
          "name": "",
          "type": "uint256"
        }
      ],
      "stateMutability": "view",
      "type": "function"
    },
    {
      "inputs": [
        {
          "internalType": "bytes32",
          "name": "requestId",
          "type": "bytes32"
        }
      ],
      "name": "generateAttestation",
      "outputs": [],
      "stateMutability": "nonpayable",
      "type": "function"
    },
    {
      "inputs": [
        {
          "internalType": "address",
          "name": "employee",
          "type": "address"
        }
      ],
      "name": "getAccumulatedIncomeHandle",
      "outputs": [
        {
          "internalType": "bytes32",
          "name": "incomeHandle",
          "type": "bytes32"
        }
      ],
      "stateMutability": "view",
      "type": "function"
    },
    {
      "inputs": [
        {
          "internalType": "bytes32",
          "name": "requestId",
          "type": "bytes32"
        }
      ],
      "name": "getAttestationHandles",
      "outputs": [
        {
          "internalType": "bytes32",
          "name": "meetsThresholdHandle",
          "type": "bytes32"
        },
        {
          "internalType": "bytes32",
          "name": "tierHandle",
          "type": "bytes32"
        }
      ],
      "stateMutability": "view",
      "type": "function"
    },
    {
      "inputs": [
        {
          "internalType": "bytes32",
          "name": "requestId",
          "type": "bytes32"
        }
      ],
      "name": "isRequestFulfilled",
      "outputs": [
        {
          "internalType": "bool",
          "name": "fulfilled",
          "type": "bool"
        }
      ],
      "stateMutability": "view",
      "type": "function"
    },
    {
      "inputs": [
        {
          "internalType": "address",
          "name": "employee",
          "type": "address"
        },
        {
          "internalType": "euint128",
          "name": "encryptedAmount",
          "type": "bytes32"
        }
      ],
      "name": "onSalaryWithdrawn",
      "outputs": [],
      "stateMutability": "nonpayable",
      "type": "function"
    },
    {
      "inputs": [
        {
          "internalType": "address",
          "name": "employee",
          "type": "address"
        },
        {
          "internalType": "euint128",
          "name": "",
          "type": "bytes32"
        }
      ],
      "name": "onStreamCanceled",
      "outputs": [],
      "stateMutability": "nonpayable",
      "type": "function"
    },
    {
      "inputs": [
        {
          "internalType": "address",
          "name": "employee",
          "type": "address"
        },
        {
          "internalType": "euint128",
          "name": "",
          "type": "bytes32"
        }
      ],
      "name": "onStreamCreated",
      "outputs": [],
      "stateMutability": "nonpayable",
      "type": "function"
    },
    {
      "inputs": [],
      "name": "payrollContract",
      "outputs": [
        {
          "internalType": "address",
          "name": "",
          "type": "address"
        }
      ],
      "stateMutability": "view",
      "type": "function"
    },
    {
      "inputs": [
        {
          "internalType": "address",
          "name": "employee",
          "type": "address"
        },
        {
          "internalType": "externalEuint128",
          "name": "encryptedThreshold",
          "type": "bytes32"
        },
        {
          "internalType": "bytes",
          "name": "thresholdProof",
          "type": "bytes"
        }
      ],
      "name": "requestAttestation",
      "outputs": [
        {
          "internalType": "bytes32",
          "name": "requestId",
          "type": "bytes32"
        }
      ],
      "stateMutability": "nonpayable",
      "type": "function"
    },
    {
      "inputs": [
        {
          "internalType": "bytes32",
          "name": "",
          "type": "bytes32"
        }
      ],
      "name": "requests",
      "outputs": [
        {
          "internalType": "address",
          "name": "verifier",
          "type": "address"
        },
        {
          "internalType": "address",
          "name": "employee",
          "type": "address"
        },
        {
          "internalType": "euint128",
          "name": "threshold",
          "type": "bytes32"
        },
        {
          "internalType": "uint64",
          "name": "requestedAt",
          "type": "uint64"
        },
        {
          "internalType": "bool",
          "name": "fulfilled",
          "type": "bool"
        }
      ],
      "stateMutability": "view",
      "type": "function"
    },
    {
      "inputs": [
        {
          "internalType": "bytes32",
          "name": "",
          "type": "bytes32"
        }
      ],
      "name": "results",
      "outputs": [
        {
          "internalType": "ebool",
          "name": "meetsThreshold",
          "type": "bytes32"
        },
        {
          "internalType": "euint8",
          "name": "tier",
          "type": "bytes32"
        },
        {
          "internalType": "uint64",
          "name": "generatedAt",
          "type": "uint64"
        }
      ],
      "stateMutability": "view",
      "type": "function"
    }
  ],
  "bytecode": "0x60a06040523480156200001157600080fd5b5060405162001718380380620017188339810160408190526200003491620002ce565b620000eb6200004262000158565b80517f9e7b61f58c47dc699ac88507c4f5bb9f121c03808c5676a8078fe583e464970080546001600160a01b03199081166001600160a01b039384161790915560208301517f9e7b61f58c47dc699ac88507c4f5bb9f121c03808c5676a8078fe583e46497018054831691841691909117905560408301517f9e7b61f58c47dc699ac88507c4f5bb9f121c03808c5676a8078fe583e46497028054909216921691909117905550565b6001600160a01b038116620001465760405162461bcd60e51b815260206004820152601760248201527f496e76616c696420706179726f6c6c2061646472657373000000000000000000604482015260640160405180910390fd5b6001600160a01b031660805262000300565b604080516060810182526000808252602082018190529181019190915246600103620001b45750604080516060808201835260008083526020808401829052928401819052835191820184528082529181018290529182015290565b4662aa36a703620002355750604080516060808201835260008083526020808401829052928401528251908101835273f0ffdc93b7e186bc2f8cb3daa75d86d1930a433d81527392c920834ec8941d2c77d188936e1f7a6f49c1279181019190915273be0e383937d564d7ff0bc3b46c51f0bf8d5c311a9181019190915290565b46617a6903620002b5575060408051606080820183526000808352602080840182905292840152825190810183527350157cffd6bbfa2dece204a89ec419c23ef5755d815273e3a9105a3a932253a70f126eb1e3b589c643dd249181019190915273be0e383937d564d7ff0bc3b46c51f0bf8d5c311a9181019190915290565b6040516373cac13b60e01b815260040160405180910390fd5b600060208284031215620002e157600080fd5b81516001600160a01b0381168114620002f957600080fd5b9392505050565b6080516113e062000338600039600081816102e3015281816104da015281816105ce0152818161061a015261078101526113e06000f3fe608060405234801561001057600080fd5b50600436106100cf5760003560e01c80638927b0301161008c57806399dcfc961161006657806399dcfc961461021f5780639d866985146102325780639f1851e2146102cb578063d0020586146102de57600080fd5b80638927b030146101ba5780638c5924e0146101c257806392a442ea146101e257600080fd5b80634c6b25b1146100d45780634c8994381461013657806356ea9c98146101575780636301b7321461016a57806365f593cf1461017f5780636fab6ce414610192575b600080fd5b61010c6100e2366004611160565b600260208190526000918252604090912080546001820154919092015467ffffffffffffffff1683565b60408051938452602084019290925267ffffffffffffffff16908201526060015b60405180910390f35b610149610144366004611195565b61031d565b60405190815260200161012d565b61014961016536600461121c565b6104bb565b61017d610178366004611237565b6105c3565b005b61017d61018d366004611237565b61060f565b6101a56101a0366004611160565b6106cb565b6040805192835260208301919091520161012d565b610149610767565b6101496101d036600461121c565b60006020819052908152604090205481565b61020f6101f0366004611160565b600090815260016020526040902060030154600160401b900460ff1690565b604051901515815260200161012d565b61017d61022d366004611237565b610776565b61028c610240366004611160565b600160208190526000918252604090912080549181015460028201546003909201546001600160a01b0393841693909116919067ffffffffffffffff811690600160401b900460ff1685565b604080516001600160a01b0396871681529590941660208601529284019190915267ffffffffffffffff1660608301521515608082015260a00161012d565b61017d6102d9366004611160565b6108cc565b6103057f000000000000000000000000000000000000000000000000000000000000000081565b6040516001600160a01b03909116815260200161012d565b6000806103608585858080601f016020809104026020016040519081016040528093929190818152602001838380828437600092019190915250610b8f92505050565b6040516bffffffffffffffffffffffff1933606090811b8216602084015289901b16603482015242604882015243606882015290915060880160408051601f19818403018152828252805160209182012060a0840183523384526001600160a01b038a811685840190815285850187815267ffffffffffffffff42811660608901908152600060808a01818152878252600198899052989020985189549086166001600160a01b0319918216178a559351968901805497909516969093169590951790925590516002860155516003909401805493511515600160401b0268ffffffffffffffffff199094169490921693909317919091179055915061046581610ba4565b5060405167ffffffffffffffff421681526001600160a01b03871690339084907f74efcea911f8b563518ccb191935f2d3e73e00033942ef6897d7cbe27a0d9a769060200160405180910390a450949350505050565b6000336001600160a01b03831614806104fc5750336001600160a01b037f000000000000000000000000000000000000000000000000000000000000000016145b61054d5760405162461bcd60e51b815260206004820152601860248201527f4f6e6c7920656d706c6f796565206f7220706179726f6c6c000000000000000060448201526064015b60405180910390fd5b6001600160a01b0382166000908152602081905260409020546105a35760405162461bcd60e51b815260206004820152600e60248201526d4e6f20696e636f6d65206461746160901b6044820152606401610544565b6001600160a01b0382166000908152602081905260409020545b92915050565b336001600160a01b037f0000000000000000000000000000000000000000000000000000000000000000161461060b5760405162461bcd60e51b815260040161054490611261565b5050565b336001600160a01b037f000000000000000000000000000000000000000000000000000000000000000016146106575760405162461bcd60e51b815260040161054490611261565b6001600160a01b03821660009081526020819052604090205461060b5761067e6000610bb4565b6001600160a01b03831660009081526020819052604090208190556106a290610ba4565b506001600160a01b0382166000908152602081905260409020546106c69083610bd3565b505050565b60008181526002602081815260408084208151606081018352815481526001820154938101939093529092015467ffffffffffffffff1691810182905282916107565760405162461bcd60e51b815260206004820152601d60248201527f4174746573746174696f6e206e6f742067656e657261746564207965740000006044820152606401610544565b805160208201519250925050915091565b6000610771610be6565b905090565b336001600160a01b037f000000000000000000000000000000000000000000000000000000000000000016146107be5760405162461bcd60e51b815260040161054490611261565b6001600160a01b0382166000908152602081905260409020541561081d576001600160a01b0382166000908152602081905260409020546107ff9082610c1d565b6001600160a01b038316600090815260208190526040902055610839565b6001600160a01b03821660009081526020819052604090208190555b6001600160a01b03821660009081526020819052604090205461085b90610ba4565b506001600160a01b03821660009081526020819052604090205461087f9083610bd3565b5060405167ffffffffffffffff421681526001600160a01b038316907fcf02a50e1d8cf5c9bea941e8966da556c6972d65dd1d9b1eb9f7612e8dbc65649060200160405180910390a25050565b60008181526001602052604090206003810154600160401b900460ff161561092a5760405162461bcd60e51b8152602060048201526011602482015270105b1c9958591e48199d5b199a5b1b1959607a1b6044820152606401610544565b60018101546001600160a01b03166000908152602081905260409020546109935760405162461bcd60e51b815260206004820152601b60248201527f4e6f20696e636f6d65206461746120666f7220656d706c6f79656500000000006044820152606401610544565b60018101546001600160a01b031660009081526020819052604081205460028301546109bf9190610c4f565b905060006109da83600201546109d56002610bb4565b610c81565b905060006109f084600201546109d56003610bb4565b60018501546001600160a01b031660009081526020819052604081205491925090610a1b9083610c4f565b60018601546001600160a01b031660009081526020819052604081205491925090610a469085610c4f565b90506000610a546000610cb3565b9050610a6a86610a646001610cb3565b83610cc3565b9050610a7a82610a646002610cb3565b9050610a8a83610a646003610cb3565b6040805160608101825288815260208082018481524267ffffffffffffffff90811684860190815260008f815260029485905295909520935184559051600184015592519101805467ffffffffffffffff1916919092161790558754909150610afd9087906001600160a01b0316610bd3565b508654610b149082906001600160a01b0316610bd3565b5060038701805468ff00000000000000001916600160401b179055600187015487546040514267ffffffffffffffff1681526001600160a01b0392831692909116908a907f5e68382117d8e813c74dc85a9450937cc2c88b637b0cc090ef1c050e03777c129060200160405180910390a45050505050505050565b6000610b9d83836006610d0e565b9392505050565b6000610bb08230610e13565b5090565b60006105bd826fffffffffffffffffffffffffffffffff166006610e90565b6000610bdf8383610e13565b5090919050565b600046600103610bf65750600190565b4662aa36a703610c07575061271190565b46617a6903610c17575060001990565b50600090565b600082610c3157610c2e6000610bb4565b92505b81610c4357610c406000610bb4565b91505b610b9d83836000610f25565b600082610c6357610c606000610bb4565b92505b81610c7557610c726000610bb4565b91505b610b9d83836000610fd9565b600082610c9557610c926000610bb4565b92505b81610ca757610ca46000610bb4565b91505b610b9d83836000611040565b60006105bd8260ff166002610e90565b600083610cd757610cd460006110a7565b93505b82610ce957610ce66000610cb3565b92505b81610cfb57610cf86000610cb3565b91505b610d068484846110c5565b949350505050565b60008051602061136b8339815191525460405163045fc19560e11b815260009160008051602061138b833981519152916001600160a01b03909116906308bf832a90610d649088903390899089906004016112b2565b6020604051808303816000875af1158015610d83573d6000803e3d6000fd5b505050506040513d601f19601f82011682018060405250810190610da7919061131d565b8154604051630f8e573b60e21b8152600481018390523360248201529193506001600160a01b031690633e395cec90604401600060405180830381600087803b158015610df357600080fd5b505af1158015610e07573d6000803e3d6000fd5b50505050509392505050565b600060008051602061138b8339815191528054604051635ca4b5b160e11b8152600481018690526001600160a01b03858116602483015292935091169063b9496b6290604401600060405180830381600087803b158015610e7357600080fd5b505af1158015610e87573d6000803e3d6000fd5b50505050505050565b60008051602061136b83398151915254604051639cd07acb60e01b815260009160008051602061138b833981519152916001600160a01b0390911690639cd07acb90610ee29087908790600401611336565b6020604051808303816000875af1158015610f01573d6000803e3d6000fd5b505050506040513d601f19601f82011682018060405250810190610d06919061131d565b6000808215610f395750600160f81b610f3d565b5060005b60008051602061136b8339815191525460405163022f65e760e31b815260008051602061138b833981519152916001600160a01b03169063117b2f3890610f8c9089908990879060040161134a565b6020604051808303816000875af1158015610fab573d6000803e3d6000fd5b505050506040513d601f19601f82011682018060405250810190610fcf919061131d565b9695505050505050565b6000808215610fed5750600160f81b610ff1565b5060005b60008051602061136b83398151915254604051631391547f60e01b815260008051602061138b833981519152916001600160a01b031690631391547f90610f8c9089908990879060040161134a565b60008082156110545750600160f81b611058565b5060005b60008051602061136b83398151915254604051630afe14ad60e31b815260008051602061138b833981519152916001600160a01b0316906357f0a56890610f8c9089908990879060040161134a565b60006105bd826110b85760006110bb565b60015b60ff166000610e90565b60008060008051602061138b8339815191526001810154604051637702dcff60e01b81526004810188905260248101879052604481018690529192506001600160a01b031690637702dcff906064016020604051808303816000875af1158015611133573d6000803e3d6000fd5b505050506040513d601f19601f82011682018060405250810190611157919061131d565b95945050505050565b60006020828403121561117257600080fd5b5035919050565b80356001600160a01b038116811461119057600080fd5b919050565b600080600080606085870312156111ab57600080fd5b6111b485611179565b935060208501359250604085013567ffffffffffffffff808211156111d857600080fd5b818701915087601f8301126111ec57600080fd5b8135818111156111fb57600080fd5b88602082850101111561120d57600080fd5b95989497505060200194505050565b60006020828403121561122e57600080fd5b610b9d82611179565b6000806040838503121561124a57600080fd5b61125383611179565b946020939093013593505050565b60208082526015908201527413db9b1e481c185e5c9bdb1b0818dbdb9d1c9858dd605a1b604082015260600190565b605481106112ae57634e487b7160e01b600052602160045260246000fd5b9052565b8481526000602060018060a01b038616602084015260806040840152845180608085015260005b818110156112f55786810183015185820160a0015282016112d9565b50600060a0828601015260a0601f19601f830116850101925050506111576060830184611290565b60006020828403121561132f57600080fd5b5051919050565b82815260408101610b9d6020830184611290565b92835260208301919091526001600160f81b03191660408201526060019056fe9e7b61f58c47dc699ac88507c4f5bb9f121c03808c5676a8078fe583e46497019e7b61f58c47dc699ac88507c4f5bb9f121c03808c5676a8078fe583e4649700a26469706673582212206af7e0760703efc932c4c7021abd0e174378e4886cc737d7132935ef33bd873764736f6c63430008180033",
  "linkReferences": {},
  "deployedLinkReferences": {}
}